:1004960057656C636F6D6520746F20757365210AEF
:1004A600004D61646520627920426565746C652043
:1004B600456C656374726F6E696320546563686E1C
:1004C6006F6C6F6779210A004552524F520A00201D
:0304D600670A00B2
:10056200041100000000040900000000040D000056
:070572000000010800C100B8
:1002800012057F7BFF7A04799612051A7BFF7A04A8
:1002900079A712051A7FB87E0B1205421205ABC270
:1002A000AF1203D3D2AF12059730000B7BFF7A0455
:1002B00079CE12051A80E8E47BE87A03F9F8AF10EA
:1002C000AE0FAD0EAC0D120452EF2430FF1205B785
:1002D000E47BE87A03F9F8AF10AE0FAD0EAC0D1267
:1002E0000452AC00AD01AE02AF03E47B64FAF9F84E
:1002F000120452EF2430FF1205B7E47B64FAF9F8D8
:10030000AF10AE0FAD0EAC0D120452AC00AD01AE8D
:1003100002AF03E47B0AFAF9F8120452EF2430FF2B
:100320001205B7E47B0AFAF9F8AF10AE0FAD0EACC8
:100330000D120452EB2430FF1205B77BFF7A0479CB
:07034000D512051A02029F0D
:1005970020B2107F057E0012054220B20630B2FD60
:0405A7001205AB226C
:1003D3001204D98F108E0F8D0E8C0DC3E510950C62
:1003E300F510E50F950BF50FE50E950AF50EE50DE6
:1003F3009509F50DE4FFFEFDFCAB10AA0FA90EA8AD
:100403000DD3120189403CAF10AE0FAD0EAC0DEC15
:100413001200A3E4FBFA79D778431200061200E135
:10042300E48F108E0FF50EF50D7F887E13FDFCAB68
:1004330010AA0FA90EA80DD31201894003D20022DE
:0F044300C20022E4F510F50FF50EF50DD20022E0
:0C05AB001204D98F0C8E0B8D0A8C0922D3
:10054200E4FDFCC3ED9FEC9E5015E4FBFA0BBB00EF
:0F055200010AEB647B4A70F50DBD00010C80E4DB
:010561002277
:0305C10000002215
:1004D900D2A11205C1C2A07F007E007D007C00D29E
:1004E900AF20A1FDC2AFE4FBD2A0780112019FC2E7
:1004F900A030A10DEF2401FFE43EFEE43DFDE43C04
:10050900FC0BBB18E3D2A0ED6480FD1205C1C2A0AB
:0105190022BF
:05057900011800C101A2
:10057F00759850C29CE4F587758921758DFD758B33
:08058F00FDD28ED2AFC2AC22F6
:10051A008B158A168917AB15AA16A91712016260DC
:10052A00160517E5177002051614F9120162F599F6
:08053A003099FDC29980DF2217
:0A05B700C2998F993099FDC2992274
:10000300020157EC5D046005E85904700302014DD9
:10001300120118580460F6EC4860F2EC7004FDFE1F
:10002300FF22C860DB2481C85009C39860025006D0
:100033000201549850CAF582E9294B4A7005AB82F4
:1000430002014375F0007C1A7880C3EF9BEE9AEDB2
:1000530099400DC3EF9BFFEE9AFEED99FDE842F048
:10006300DC23ACF0D0E0FFD0E0FED0E0FDAB82209B
:10007300E7101BEB60BAEC2CFCEF33FFEE33FEED25
:1000830033FD02012FE803F830E705C0F075F000F7
:10009300EF2FFFEE33FEED33FD40B830E7C280AA09
:1000A30075F020800E75F010800575F0087D007ED8
:1000B300007F003392D530D50312017BEC3340101F
:1000C300EF33FFEE33FEED33FDEC33FCD5F0ED22E1
:0E00D300E5F0247EA2D513CC92E7CDCEFF221D
:1000E100EDD2E7CD33EC3392D524814006E4FFFE17
:1000F100FDFC22FCE4CFCECDCC24E0501174FF8076
:10010100EDC3CC13CCCD13CDCE13CECF13CF047012
:07011100F030D5DE02017B96
:10011800E9D2E7C933E833F892D5EDD2E7CD33EC2D
:0701280033FC5002B2D522A6
:10012F00EC30E7100FBF000C0EBE00080DBD000431
:10013F000BEB6014A2D5EB13FCED92E7FD2274FFDD
:10014F00FCFDFEFF22E480F8A2D574FF13FC7D8036
:03015F00E480EF4A
:03000000020347B1
:0C034700787FE4F6D8FD75812002038E5B
:10016200BB010689828A83E0225002E722BBFE029B
:09017200E32289828A83E49322CE
:10045200C2D5E830E70FB2D5E4C39BFBE49AFAE4D5
:1004620099F9E498F8EC30E717B2D5120488120132
:10047200EEE4C39BFBE49AFAE499F9E498F880036A
:100482001201EE30D50DE4C39FFFE49EFEE49DFD14
:04049200E49CFC22C8
:0E017B00C3E49FFFE49EFEE49DFDE49CFC2295
:10018900EB9FF5F0EA9E42F0E99D42F0EC6480C8ED
:0601990064809845F0228D
:10019F00E8600FEFC333FFEE33FEED33FDEC33FCBE
:0301AF00D8F12262
:10035300020280E493A3F8E493A34003F68001F23E
:1003630008DFF48029E493A3F85407240CC8C333AB
:10037300C4540F4420C8834004F456800146F6DF7A
:10038300E4800B0102040810204080900562E47EA3
:10039300019360BCA3FF543F30E509541FFEE4936F
:1003A300A360010ECF54C025E060A840B8E493A336
:1003B300FAE493A3F8E493A3C8C582C8CAC583CA61
:1003C300F0A3C8C582C8CAC583CADFE9DEE780BE19
:01057E00007C
:1001B20075F008758200EF2FFFEE33FECD33CDCC04
:1001C20033CCC58233C5829BED9AEC99E582984087
:1001D2000CF582EE9BFEED9AFDEC99FC0FD5F0D664
:1001E200E4CEFBE4CDFAE4CCF9A88222B800C1B98E
:1001F2000059BA002DEC8BF084CFCECDFCE5F0CBCC
:10020200F97818EF2FFFEE33FEED33FDEC33FCEB04
:1002120033FB10D703994004EB99FB0FD8E5E4F9BF
:10022200FA227818EF2FFFEE33FEED33FDEC33FCAC
:10023200C933C910D7059BE99A4007EC9BFCE99AA0
:10024200F90FD8E0E4C9FAE4CCFB2275F010EF2FE5
:10025200FFEE33FEED33FDCC33CCC833C810D707E5
:100262009BEC9AE899400AED9BFDEC9AFCE899F820
:0E0272000FD5F0DAE4CDFBE4CCFAE4C8F922B3
:00000001FF
