:10088B0057656967687420205761726E696E6700DF
:0A089B004552524F52200020670022
:1007A600043800000000042B0000000004340000A0
:1007B6000000042300000000012900C100022701F7
:0107C600AE84
:0C091400C2AF53E71843E70143E780221D
:0909410053E77FE4F5E6D2AF2292
:0B092C0012091475E64675E6B90022BA
:10085300AD07AC06C2AF8CE3EDF5E453E5F843E531
:0C0863000112092C120941D2AFAFE222B1
:1008D500EE54FEFEF5E3E4F5E453E5F843E50312D3
:0508E500092C0209418D
:10086F00AB07AA06C2AF8AE3EBF5E453E5F843E51D
:0C087F00028DE212092C120941D2AF22B6
:10065700E4FB7A01F9F8AF26AE25AD24AC231206E8
:10066700F98F2FE4FB7A01F9F8AF26AE25AD24AC5C
:10067700231206F9AF038F30E527F5218528227F5E
:10068700007E201208D5AD2F7F117E2012086FAD96
:10069700300F12086FAD217F0112086FAD220F12C4
:0906A700086FAD2A7F6002086FA4
:1006B0007F017E201208538F217F021208538F2260
:1006C0007F111208538F2F7F121208538F30E52F9E
:1006D000FE7C00E42530FFEC3EFEE48F268E25F5FF
:1006E00024F523E521FEE42522F528EC3EF5277FBD
:0906F000607E201208538F2A22BB
:1007F3001206B0E52A649C6016752A9CE47526648B
:10080300F525F524F5237527017528AE1206572221
:100280001208BD7F801208EA7BFF7A08798B12077B
:10029000CD1207F37FE87E031208131209207F6452
:1002A0007E001208131209207F647E0012081312C8
:1002B0000920C2AF120535D2AF1203F83000127F09
:1002C000C01208EA7BFF7A08799B1207CDC297809B
:1002D000E17FC01208EAE47BE87A03F9F8AF37AEB1
:1002E00036AD35AC341206F9EF2430FF1208FFE4C6
:1002F0007BE87A03F9F8AF37AE36AD35AC34120689
:10030000F9AC00AD01AE02AF03E47B64FAF9F81278
:1003100006F9EF2430FF1208FFE47B64FAF9F8AF26
:1003200037AE36AD35AC341206F9AC00AD01AE02D5
:10033000AF03E47B0AFAF9F81206F9EF2430FF1252
:1003400008FFE47B0AFAF9F8AF37AE36AD35AC34C6
:100350001206F9EB2430FF1208FF7BFF7A0879A21E
:100360001207CD7FC81208EAE47BE87A03F9F8AFF8
:1003700026AE25AD24AC231206F9EF2430FF120877
:10038000FFE47BE87A03F9F8AF26AE25AD24AC2371
:100390001206F9AC00AD01AE02AF03E47B64FAF9DA
:1003A000F81206F9EF2430FF1208FFE47B64FAF933
:1003B000F8AF26AE25AD24AC231206F9AC00AD0192
:1003C000AE02AF03E47B0AFAF9F81206F9EF243023
:1003D000FF1208FFE47B0AFAF9F8AF26AE25AD2438
:1003E000AC231206F9EB2430FF1208FF7BFF7A08DA
:0803F00079A21207CD0202B24E
:1003F80020B21930B31630B4137F057E00120813EB
:1004080020B20930B30630B40312092020B34330B8
:10041800B24030B43D7F147E0012081320B333304D
:10042800B23030B42DE47F887E13FDFCAB26AA25BC
:10043800A924A823D31201895015E5262401F526FD
:10044800E43525F525E43524F524E43523F5231290
:10045800065720B44530B34230B23F7F147E0012B5
:10046800081320B43530B33230B22FE47F02FEFDDA
:10047800FCAB26AA25A924A823C31201894018E5A4
:10048800269401F526E5259400F525E5249400F544
:1004980024E5239400F52312065720B22C20B32913
:1004A80030B4267F197E0012081320B21C20B3191D
:1004B80030B416C3E528940FE5279427500805287B
:1004C800E5287002052712065720B22C30B32920E0
:1004D800B4267F197E0012081320B21C30B31920ED
:1004E800B416D3E5289401E52794004008E52815BB
:1004F8002870021527120657AF26AE25AD24AC2367
:10050800AB37AA36A935A834C31201895004D2B032
:10051800D297AF26AE25AD24AC23AB37AA36A93582
:0D052800A834C31201894004C2B0C297225A
:1005350012073D8F378E368D358C34C3E537952EB2
:10054500F537E536952DF536E535952CF535E53454
:10055500952BF534E4FFFEFDFCAB37AA36A935A88B
:1005650034D31201894055AF37AE36AD35AC34ECD6
:100575001200A3C004C005C006C007AC27AD28E41F
:100585001200A8A804A905AA06AB07D007D006D073
:1005950005D0041200061200E1E48F378E36F535DA
:1005A500F5347F887E13FDFCAB37AA36A935A83410
:1005B500D31201894003D20022C20022E4F537F5A7
:0605C50036F535F5342285
:0C09200012073D8F2E8E2D8D2C8C2B226B
:10081300E4FDFCC3ED9FEC9E5015E4FBFA0BBB001B
:0F082300010AEB647B4A70F50DBD00010C80E407
:0108320022A3
:03094A0000002288
:10073D00D2A112094AC2A07F007E007D007C00D2AA
:10074D00AF20A1FDC2AFE4FBD2A0780112019FC280
:10075D00A030A10DEF2401FFE43EFEE43DFDE43C9D
:10076D00FC0BBB18E3D2A0ED6480FD12094AC2A0B8
:01077D002259
:0507C700010E00C1015C
:1008A500759850C29CE4F587758921758DFD758B0A
:0808B500FDD28ED2AFC2AC22CD
:10077E008B088A09890AAB08AA09A90A12016260C4
:10078E0016050AE50A7002050914F9120162F599B7
:08079E003099FDC29980DF22B1
:0A093700C2998F993099FDC29922F0
:10083300E4FDFCC3ED9FEC9E5015E4FBFA0BBB00FB
:0F084300010AEB647B4A70F50DBD00010C80E4E7
:010852002283
:1008EA00A907C2A57F017E00120833D2A789801208
:0508FA000833C2A72233
:1008FF00A907D2A57F017E001208338980D2A712E3
:05090F000833C2A7221D
:1007CD008B0B8A0C890DAB0BAA0CA90D120162FFC4
:1007DD00D3940040101208FF7401250DF50DE4357A
:0607ED000CF50C80E12276
:1008BD00C2A7C2A67F381208EA7F0C1208EA7F068B
:0808CD001208EA7F010208EAAB
:10000300020157EC5D046005E85904700302014DD9
:10001300120118580460F6EC4860F2EC7004FDFE1F
:10002300FF22C860DB2481C85009C39860025006D0
:100033000201549850CAF582E9294B4A7005AB82F4
:1000430002014375F0007C1A7880C3EF9BEE9AEDB2
:1000530099400DC3EF9BFFEE9AFEED99FDE842F048
:10006300DC23ACF0D0E0FFD0E0FED0E0FDAB82209B
:10007300E7101BEB60BAEC2CFCEF33FFEE33FEED25
:1000830033FD02012FE803F830E705C0F075F000F7
:10009300EF2FFFEE33FEED33FD40B830E7C280AA09
:1000A30075F020800E75F010800575F0087D007ED8
:1000B300007F003392D530D50312017BEC3340101F
:1000C300EF33FFEE33FEED33FDEC33FCD5F0ED22E1
:0E00D300E5F0247EA2D513CC92E7CDCEFF221D
:1000E100EDD2E7CD33EC3392D524814006E4FFFE17
:1000F100FDFC22FCE4CFCECDCC24E0501174FF8076
:10010100EDC3CC13CCCD13CDCE13CECF13CF047012
:07011100F030D5DE02017B96
:10011800E9D2E7C933E833F892D5EDD2E7CD33EC2D
:0701280033FC5002B2D522A6
:10012F00EC30E7100FBF000C0EBE00080DBD000431
:10013F000BEB6014A2D5EB13FCED92E7FD2274FFDD
:10014F00FCFDFEFF22E480F8A2D574FF13FC7D8036
:03015F00E480EF4A
:030000000205CB2B
:0C05CB00787FE4F6D8FD75813B02061233
:10016200BB010689828A83E0225002E722BBFE029B
:09017200E32289828A83E49322CE
:1006F900C2D5E830E70FB2D5E4C39BFBE49AFAE42C
:1007090099F9E498F8EC30E717B2D512072F1201DE
:10071900EEE4C39BFBE49AFAE499F9E498F88003C0
:100729001201EE30D50DE4C39FFFE49EFEE49DFD6A
:04073900E49CFC221E
:0E017B00C3E49FFFE49EFEE49DFDE49CFC2295
:10018900EB9FF5F0EA9E42F0E99D42F0EC6480C8ED
:0601990064809845F0228D
:10019F00E8600FEFC333FFEE33FEED33FDEC33FCBE
:0301AF00D8F12262
:1005D700020280E493A3F8E493A34003F68001F2B8
:1005E70008DFF48029E493A3F85407240CC8C33325
:1005F700C4540F4420C8834004F456800146F6DFF4
:10060700E4800B01020408102040809007A6E47ED6
:10061700019360BCA3FF543F30E509541FFEE493E8
:10062700A360010ECF54C025E060A840B8E493A3AF
:10063700FAE493A3F8E493A3C8C582C8CAC583CADA
:10064700F0A3C8C582C8CAC583CADFE9DEE780BE92
:0107CC00002C
:1001B20075F008758200EF2FFFEE33FECD33CDCC04
:1001C20033CCC58233C5829BED9AEC99E582984087
:1001D2000CF582EE9BFEED9AFDEC99FC0FD5F0D664
:1001E200E4CEFBE4CDFAE4CCF9A88222B800C1B98E
:1001F2000059BA002DEC8BF084CFCECDFCE5F0CBCC
:10020200F97818EF2FFFEE33FEED33FDEC33FCEB04
:1002120033FB10D703994004EB99FB0FD8E5E4F9BF
:10022200FA227818EF2FFFEE33FEED33FDEC33FCAC
:10023200C933C910D7059BE99A4007EC9BFCE99AA0
:10024200F90FD8E0E4C9FAE4CCFB2275F010EF2FE5
:10025200FFEE33FEED33FDCC33CCC833C810D707E5
:100262009BEC9AE899400AED9BFDEC9AFCE899F820
:0E0272000FD5F0DAE4CDFBE4CCFAE4C8F922B3
:00000001FF
