:1005BD003F065B4F666D7D077F6F00FF6F79773F5D
:0205CD0076387E
:10055B00041900000000040F000000000415000047
:10056B00000002130000010800010900010A00014C
:0D057B000B00010C00010D00010E00C1007D
:100272001205CF75081075090D750A11750B1175E8
:100282000C0F750D0A7FB87E0B1205891205DFC2AD
:10029200AF120457D2AF1205A930001475080D75BC
:1002A200090E750A0E750B0F750C0E750D0A80DF9F
:1002B200E47BE87A03F9F8AF18AE17AD16AC151265
:1002C20004D68F08E47BE87A03F9F8AF18AE17ADCD
:1002D20016AC151204D6AC00AD01AE02AF03E47B3E
:1002E20064FAF9F81204D68F09E47B64FAF9F8AFDC
:1002F20018AE17AD16AC151204D6AC00AD01AE02A5
:10030200AF03E47B0AFAF9F81204D68F0AE47B0AF7
:10031200FAF9F8AF18AE17AD16AC151204D6AF0342
:0B0322008F0B750C0A750D0C02029188
:1005A90020B2107F057E0012058920B20630B2FD07
:0405B9001205DF2226
:1004570012051A8F188E178D168C15C3E51895126D
:10046700F518E5179511F517E5169510F516E51525
:10047700950FF515E4FFFEFDFCAB18AA17A916A802
:1004870015D312017B403CAF18AE17AD16AC15EC77
:100497001200AEE4FBFA79D778431200111200EC90
:1004A700E48F188E17F516F5157F887E13FDFCABC4
:1004B70018AA17A916A815D312017B4003D2002248
:0F04C700C20022E4F518F517F516F515D200223C
:0C05DF0012051A8F128E118D108C0F2245
:1005CF00758901758CF8758A30D28CD2A9D2AF2279
:03000B0002032DC0
:10032D00C0E0C083C082C0D0758CF8758A30C28D94
:10033D00050EE50EC394064003750E00E50E146020
:10034D002014602D14603A14604714605424057015
:10035D0064C2A7D2A6D2A5D2A4D2A3D2A2E5088008
:10036D004ED2A7C2A6D2A5D2A4D2A3D2A2E509800D
:10037D003ED2A7D2A6C2A5D2A4D2A3D2A2E50A800C
:10038D002ED2A7D2A6D2A5C2A4D2A3D2A2E50B800B
:10039D001ED2A7D2A6D2A5D2A4C2A3D2A2E50C800A
:1003AD000ED2A7D2A6D2A5D2A4D2A3C2A2E50D90F9
:0E03BD0005BD93F580D0D0D082D083D0E03241
:10058900E4FDFCC3ED9FEC9E5015E4FBFA0BBB00A8
:0F059900010AEB647B4A70F50DBD00010C80E494
:0105A8002230
:03000300000022D8
:10051A00D2B1120003C2B07F007E007D007C00D2FF
:10052A00AF20B1FDC2AFE4FBD2B07801120191C293
:10053A00B030B10DEF2401FFE43EFEE43DFDE43CA2
:10054A00FC0BBB18E3D2B0ED6480FD120003C2B00D
:01055A00227E
:10000E00020162EC5D046005E859047003020158B8
:10001E00120123580460F6EC4860F2EC7004FDFE09
:10002E00FF22C860DB2481C85009C39860025006C5
:10003E0002015F9850CAF582E9294B4A7005AB82DE
:10004E0002014E75F0007C1A7880C3EF9BEE9AED9C
:10005E0099400DC3EF9BFFEE9AFEED99FDE842F03D
:10006E00DC23ACF0D0E0FFD0E0FED0E0FDAB822090
:10007E00E7101BEB60BAEC2CFCEF33FFEE33FEED1A
:10008E0033FD02013AE803F830E705C0F075F000E1
:10009E00EF2FFFEE33FEED33FD40B830E7C280AAFE
:1000AE0075F020800E75F010800575F0087D007ECD
:1000BE00007F003392D530D50312016DEC33401022
:1000CE00EF33FFEE33FEED33FDEC33FCD5F0ED22D6
:0E00DE00E5F0247EA2D513CC92E7CDCEFF2212
:1000EC00EDD2E7CD33EC3392D524814006E4FFFE0C
:1000FC00FDFC22FCE4CFCECDCC24E0501174FF806B
:10010C00EDC3CC13CCCD13CDCE13CECF13CF047007
:07011C00F030D5DE02016D99
:10012300E9D2E7C933E833F892D5EDD2E7CD33EC22
:0701330033FC5002B2D5229B
:10013A00EC30E7100FBF000C0EBE00080DBD000426
:10014A000BEB6014A2D5EB13FCED92E7FD2274FFD2
:10015A00FCFDFEFF22E480F8A2D574FF13FC7D802B
:03016A00E480EF3F
:030000000203CB2D
:0C03CB00787FE4F6D8FD75812002041252
:1004D600C2D5E830E70FB2D5E4C39BFBE49AFAE451
:1004E60099F9E498F8EC30E717B2D512050C120129
:1004F600E0E4C39BFBE49AFAE499F9E498F88003F4
:100506001201E030D50DE4C39FFFE49EFEE49DFD9D
:04051600E49CFC2243
:0E016D00C3E49FFFE49EFEE49DFDE49CFC22A3
:10017B00EB9FF5F0EA9E42F0E99D42F0EC6480C8FB
:06018B0064809845F0229B
:10019100E8600FEFC333FFEE33FEED33FDEC33FCCC
:0301A100D8F12270
:1003D700020272E493A3F8E493A34003F68001F2C8
:1003E70008DFF48029E493A3F85407240CC8C33327
:1003F700C4540F4420C8834004F456800146F6DFF6
:10040700E4800B010204081020408090055BE47E25
:10041700019360BCA3FF543F30E509541FFEE493EA
:10042700A360010ECF54C025E060A840B8E493A3B1
:10043700FAE493A3F8E493A3C8C582C8CAC583CADC
:10044700F0A3C8C582C8CAC583CADFE9DEE780BE94
:010588000072
:1001A40075F008758200EF2FFFEE33FECD33CDCC12
:1001B40033CCC58233C5829BED9AEC99E582984095
:1001C4000CF582EE9BFEED9AFDEC99FC0FD5F0D672
:1001D400E4CEFBE4CDFAE4CCF9A88222B800C1B99C
:1001E4000059BA002DEC8BF084CFCECDFCE5F0CBDA
:1001F400F97818EF2FFFEE33FEED33FDEC33FCEB13
:1002040033FB10D703994004EB99FB0FD8E5E4F9CD
:10021400FA227818EF2FFFEE33FEED33FDEC33FCBA
:10022400C933C910D7059BE99A4007EC9BFCE99AAE
:10023400F90FD8E0E4C9FAE4CCFB2275F010EF2FF3
:10024400FFEE33FEED33FDCC33CCC833C810D707F3
:100254009BEC9AE899400AED9BFDEC9AFCE899F82E
:0E0264000FD5F0DAE4CDFBE4CCFAE4C8F922C1
:00000001FF
