:1005050057656C636F6D6520746F20757365210A7F
:10051500004D61646520627920426565746C6520D3
:10052500456C656374726F6E696320546563686EAC
:100535006F6C6F6779210A0057656C636F6D652075
:10054500746F2075736521004552524F520A00455C
:0D05550052524F52200020670A002067001C
:10067500041100000000040900000000040D000042
:070685000000010800C100A4
:100280001206927BFF7A0579051205E77BFF7A0556
:1002900079161205E71206AA7F801206C27BFF7A42
:1002A00005793D12060F7FE87E031206351207001E
:1002B000C2AF120488D2AF1206EC30001B7BFF7A6B
:1002C00005794D1205E77FC01206C27BFF7A0579DA
:1002D0005412060FC29780D8D297E47BE87A03F9CC
:1002E000F8AF10AE0FAD0EAC0D120562EF2430FF6B
:1002F00012070CE47BE87A03F9F8AF10AE0FAD0EED
:10030000AC0D120562AC00AD01AE02AF03E47B643C
:10031000FAF9F8120562EF2430FF12070CE47B644F
:10032000FAF9F8AF10AE0FAD0EAC0D120562AC00CD
:10033000AD01AE02AF03E47B0AFAF9F8120562EFF1
:100340002430FF12070CE47B0AFAF9F8AF10AE0F65
:10035000AD0EAC0D120562EB2430FF12070C7BFFD3
:100360007A05795B1205E77FC01206C2E47BE87A62
:1003700003F9F8AF10AE0FAD0EAC0D120562EF240D
:1003800030FF1206D7E47BE87A03F9F8AF10AE0F1E
:10039000AD0EAC0D120562AC00AD01AE02AF03E4D0
:1003A0007B64FAF9F8120562EF2430FF1206D7E4F5
:1003B0007B64FAF9F8AF10AE0FAD0EAC0D1205620A
:1003C000AC00AD01AE02AF03E47B0AFAF9F8120506
:1003D00062EF2430FF1206D7E47B0AFAF9F8AF1077
:1003E000AE0FAD0EAC0D120562EB2430FF1206D736
:0C03F0007BFF7A05795F12060F0202B055
:1006EC0020B2107F057E0012063520B20630B2FD16
:0406FC0012070022BF
:100488001205A68F108E0F8D0E8C0DC3E510950CDE
:10049800F510E50F950BF50FE50E950AF50EE50D30
:1004A8009509F50DE4FFFEFDFCAB10AA0FA90EA8F7
:1004B8000DD3120189403CAF10AE0FAD0EAC0DEC60
:1004C8001200A3E4FBFA79C878431200061200E18F
:1004D800E48F108E0FF50EF50D7F887E13FDFCABB3
:1004E80010AA0FA90EA80DD31201894003D2002229
:0D04F800C20022E4F510F50FF50EF50D22FF
:0C0700001205A68F0C8E0B8D0A8C0922AE
:10063500E4FDFCC3ED9FEC9E5015E4FBFA0BBB00FB
:0F064500010AEB647B4A70F50DBD00010C80E4E7
:010654002283
:03071600000022BE
:1005A600D2A1120716C2A07F007E007D007C00D279
:1005B600AF20A1FDC2AFE4FBD2A0780112019FC219
:1005C600A030A10DEF2401FFE43EFEE43DFDE43C36
:1005D600FC0BBB18E3D2A0ED6480FD120716C2A087
:0105E60022F2
:05068C00011800C1018E
:10069200759850C29CE4F587758921758DFD758B1F
:0806A200FDD28ED2AFC2AC22E2
:1005E7008B158A168917AB15AA16A917120162600F
:1005F700160517E5177002051614F9120162F59929
:080607003099FDC29980DF2249
:0A070C00C2998F993099FDC299221D
:10065500E4FDFCC3ED9FEC9E5015E4FBFA0BBB00DB
:0F066500010AEB647B4A70F50DBD00010C80E4C7
:010674002263
:1006C200A907C2A57F017E00120655D2A789801212
:0506D2000655C2A7223D
:1006D700A907D2A57F017E001206558980D2A712ED
:0506E7000655C2A72228
:10060F008B158A168917AB15AA16A917120162FF47
:10061F00D3940040101206D774012517F517E4354F
:06062F0016F51680E12221
:1006AA00C2A7C2A67F381206C27F0C1206C27F06F4
:0806BA001206C27F010206C214
:10000300020157EC5D046005E85904700302014DD9
:10001300120118580460F6EC4860F2EC7004FDFE1F
:10002300FF22C860DB2481C85009C39860025006D0
:100033000201549850CAF582E9294B4A7005AB82F4
:1000430002014375F0007C1A7880C3EF9BEE9AEDB2
:1000530099400DC3EF9BFFEE9AFEED99FDE842F048
:10006300DC23ACF0D0E0FFD0E0FED0E0FDAB82209B
:10007300E7101BEB60BAEC2CFCEF33FFEE33FEED25
:1000830033FD02012FE803F830E705C0F075F000F7
:10009300EF2FFFEE33FEED33FD40B830E7C280AA09
:1000A30075F020800E75F010800575F0087D007ED8
:1000B300007F003392D530D50312017BEC3340101F
:1000C300EF33FFEE33FEED33FDEC33FCD5F0ED22E1
:0E00D300E5F0247EA2D513CC92E7CDCEFF221D
:1000E100EDD2E7CD33EC3392D524814006E4FFFE17
:1000F100FDFC22FCE4CFCECDCC24E0501174FF8076
:10010100EDC3CC13CCCD13CDCE13CECF13CF047012
:07011100F030D5DE02017B96
:10011800E9D2E7C933E833F892D5EDD2E7CD33EC2D
:0701280033FC5002B2D522A6
:10012F00EC30E7100FBF000C0EBE00080DBD000431
:10013F000BEB6014A2D5EB13FCED92E7FD2274FFDD
:10014F00FCFDFEFF22E480F8A2D574FF13FC7D8036
:03015F00E480EF4A
:030000000203FCFC
:0C03FC00787FE4F6D8FD758120020443F0
:10016200BB010689828A83E0225002E722BBFE029B
:09017200E32289828A83E49322CE
:10056200C2D5E830E70FB2D5E4C39BFBE49AFAE4C4
:1005720099F9E498F8EC30E717B2D5120598120110
:10058200EEE4C39BFBE49AFAE499F9E498F8800359
:100592001201EE30D50DE4C39FFFE49EFEE49DFD03
:0405A200E49CFC22B7
:0E017B00C3E49FFFE49EFEE49DFDE49CFC2295
:10018900EB9FF5F0EA9E42F0E99D42F0EC6480C8ED
:0601990064809845F0228D
:10019F00E8600FEFC333FFEE33FEED33FDEC33FCBE
:0301AF00D8F12262
:10040800020280E493A3F8E493A34003F68001F288
:1004180008DFF48029E493A3F85407240CC8C333F5
:10042800C4540F4420C8834004F456800146F6DFC4
:10043800E4800B0102040810204080900675E47ED9
:10044800019360BCA3FF543F30E509541FFEE493B9
:10045800A360010ECF54C025E060A840B8E493A380
:10046800FAE493A3F8E493A3C8C582C8CAC583CAAB
:10047800F0A3C8C582C8CAC583CADFE9DEE780BE63
:010691000068
:1001B20075F008758200EF2FFFEE33FECD33CDCC04
:1001C20033CCC58233C5829BED9AEC99E582984087
:1001D2000CF582EE9BFEED9AFDEC99FC0FD5F0D664
:1001E200E4CEFBE4CDFAE4CCF9A88222B800C1B98E
:1001F2000059BA002DEC8BF084CFCECDFCE5F0CBCC
:10020200F97818EF2FFFEE33FEED33FDEC33FCEB04
:1002120033FB10D703994004EB99FB0FD8E5E4F9BF
:10022200FA227818EF2FFFEE33FEED33FDEC33FCAC
:10023200C933C910D7059BE99A4007EC9BFCE99AA0
:10024200F90FD8E0E4C9FAE4CCFB2275F010EF2FE5
:10025200FFEE33FEED33FDCC33CCC833C810D707E5
:100262009BEC9AE899400AED9BFDEC9AFCE899F820
:0E0272000FD5F0DAE4CDFBE4CCFAE4C8F922B3
:00000001FF
